{
  "contractName": "ToyCash",
  "abi": [
    {
      "constant": true,
      "inputs": [
        {
          "name": "",
          "type": "uint256"
        }
      ],
      "name": "tweet_registered",
      "outputs": [
        {
          "name": "",
          "type": "bool"
        }
      ],
      "payable": false,
      "stateMutability": "view",
      "type": "function"
    },
    {
      "anonymous": false,
      "inputs": [
        {
          "indexed": false,
          "name": "expected_address",
          "type": "address"
        },
        {
          "indexed": false,
          "name": "obtained_address",
          "type": "address"
        }
      ],
      "name": "LogJudgement",
      "type": "event"
    },
    {
      "constant": true,
      "inputs": [
        {
          "name": "_tokenAddress",
          "type": "address"
        }
      ],
      "name": "getTokenBalance",
      "outputs": [
        {
          "name": "balance",
          "type": "uint256"
        }
      ],
      "payable": false,
      "stateMutability": "view",
      "type": "function"
    },
    {
      "constant": false,
      "inputs": [
        {
          "name": "_tweetId",
          "type": "uint256"
        },
        {
          "name": "_userAddress",
          "type": "address"
        },
        {
          "name": "_amount",
          "type": "uint256"
        },
        {
          "name": "_tokenAddress",
          "type": "address"
        },
        {
          "name": "_judgeAddress",
          "type": "address"
        },
        {
          "name": "_messageHash",
          "type": "bytes32"
        },
        {
          "name": "_judgeSig",
          "type": "bytes"
        }
      ],
      "name": "sendReward",
      "outputs": [],
      "payable": false,
      "stateMutability": "nonpayable",
      "type": "function"
    },
    {
      "constant": true,
      "inputs": [
        {
          "name": "_tweetId",
          "type": "uint256"
        },
        {
          "name": "_userAddress",
          "type": "address"
        },
        {
          "name": "_amount",
          "type": "uint256"
        },
        {
          "name": "_tokenAddress",
          "type": "address"
        }
      ],
      "name": "packTweetObject",
      "outputs": [
        {
          "name": "packedTweetObject",
          "type": "bytes"
        }
      ],
      "payable": false,
      "stateMutability": "pure",
      "type": "function"
    }
  ],
  "bytecode": "0x608060405234801561001057600080fd5b506108d8806100206000396000f300608060405260043610610062576000357c0100000000000000000000000000000000000000000000000000000000900463ffffffff1680633aecd0e3146100675780634450a812146100be578063b5d0ce9e146101ae578063caafd5e614610299575b600080fd5b34801561007357600080fd5b506100a8600480360381019080803573ffffffffffffffffffffffffffffffffffffffff1690602001909291905050506102de565b6040518082815260200191505060405180910390f35b3480156100ca57600080fd5b5061013360048036038101908080359060200190929190803573ffffffffffffffffffffffffffffffffffffffff16906020019092919080359060200190929190803573ffffffffffffffffffffffffffffffffffffffff1690602001909291905050506103c2565b6040518080602001828103825283818151815260200191508051906020019080838360005b83811015610173578082015181840152602081019050610158565b50505050905090810190601f1680156101a05780820380516001836020036101000a031916815260200191505b509250505060405180910390f35b3480156101ba57600080fd5b5061029760048036038101908080359060200190929190803573ffffffffffffffffffffffffffffffffffffffff16906020019092919080359060200190929190803573ffffffffffffffffffffffffffffffffffffffff169060200190929190803573ffffffffffffffffffffffffffffffffffffffff1690602001909291908035600019169060200190929190803590602001908201803590602001908080601f016020809104026020016040519081016040528093929190818152602001838380828437820191505050505050919291929050505061047c565b005b3480156102a557600080fd5b506102c460048036038101908080359060200190929190505050610794565b604051808215151515815260200191505060405180910390f35b6000808290508073ffffffffffffffffffffffffffffffffffffffff166370a08231336040518263ffffffff167c0100000000000000000000000000000000000000000000000000000000028152600401808273ffffffffffffffffffffffffffffffffffffffff1673ffffffffffffffffffffffffffffffffffffffff168152602001915050602060405180830381600087803b15801561037f57600080fd5b505af1158015610393573d6000803e3d6000fd5b505050506040513d60208110156103a957600080fd5b8101908080519060200190929190505050915050919050565b606084848484604051602001808581526020018473ffffffffffffffffffffffffffffffffffffffff1673ffffffffffffffffffffffffffffffffffffffff166c010000000000000000000000000281526014018381526020018273ffffffffffffffffffffffffffffffffffffffff1673ffffffffffffffffffffffffffffffffffffffff166c010000000000000000000000000281526014019450505050506040516020818303038152906040529050949350505050565b60008085915061048c84846107b4565b90507fef7716f9491672e376593bba012f3a316ab832803697c41e05b609501b2f692b8582604051808373ffffffffffffffffffffffffffffffffffffffff1673ffffffffffffffffffffffffffffffffffffffff1681526020018273ffffffffffffffffffffffffffffffffffffffff1673ffffffffffffffffffffffffffffffffffffffff1681526020019250505060405180910390a18073ffffffffffffffffffffffffffffffffffffffff168573ffffffffffffffffffffffffffffffffffffffff1614151561055f57600080fd5b6000808a815260200190815260200160002060009054906101000a900460ff1615151561058b57600080fd5b868273ffffffffffffffffffffffffffffffffffffffff166370a08231876040518263ffffffff167c0100000000000000000000000000000000000000000000000000000000028152600401808273ffffffffffffffffffffffffffffffffffffffff1673ffffffffffffffffffffffffffffffffffffffff168152602001915050602060405180830381600087803b15801561062757600080fd5b505af115801561063b573d6000803e3d6000fd5b505050506040513d602081101561065157600080fd5b81019080805190602001909291905050501015151561066f57600080fd5b8173ffffffffffffffffffffffffffffffffffffffff166316c0aefd868a8a6040518463ffffffff167c0100000000000000000000000000000000000000000000000000000000028152600401808473ffffffffffffffffffffffffffffffffffffffff1673ffffffffffffffffffffffffffffffffffffffff1681526020018373ffffffffffffffffffffffffffffffffffffffff1673ffffffffffffffffffffffffffffffffffffffff1681526020018281526020019350505050600060405180830381600087803b15801561074657600080fd5b505af115801561075a573d6000803e3d6000fd5b5050505060016000808b815260200190815260200160002060006101000a81548160ff021916908315150217905550505050505050505050565b60006020528060005260406000206000915054906101000a900460ff1681565b600080600080604185511415156107ce57600093506108a3565b6020850151925060408501519150606085015160001a9050601b8160ff1610156107f957601b810190505b601b8160ff16141580156108115750601c8160ff1614155b1561081f57600093506108a3565b600186828585604051600081526020016040526040518085600019166000191681526020018460ff1660ff1681526020018360001916600019168152602001826000191660001916815260200194505050505060206040516020810390808403906000865af1158015610896573d6000803e3d6000fd5b5050506020604051035193505b505050929150505600a165627a7a723058209c09f433979f6cbe9b39854cbca11e1a56b0f2669f32a6a3bdd82b5948952bfc0029",
  "source": "pragma solidity ^0.4.24;\r\n\r\nimport \"./ECRecovery.sol\";\r\n\r\ncontract ToyCash {\r\n\r\n    /*\r\n     * Storage\r\n     */\r\n\r\n    // list for keeping whether tweets are already registered\r\n    mapping(uint256 => bool) public tweet_registered;\r\n\r\n    /*\r\n     * Event\r\n     */\r\n\r\n\r\n    event LogJudgement(address expected_address, address obtained_address);\r\n\r\n    /*\r\n     * Public functon\r\n     */\r\n\r\n    /**\r\n     * @param _tokenAddress is a token address\r\n     * @return balance is the sender's balance of the token that address is the same with _tokenAddress\r\n     */\r\n\r\n    function getTokenBalance(address _tokenAddress) public view returns(uint balance) {\r\n        ERC20Interface token = ERC20Interface(_tokenAddress);\r\n        balance = token.balanceOf(msg.sender);\r\n    }\r\n\r\n    /**\r\n     * @dev _judgeAddress send reward to _userAddress\r\n     * @param _amount is the reward amount\r\n     */\r\n\r\n    function sendReward (\r\n        uint256 _tweetId,\r\n        address _userAddress,\r\n        uint256 _amount,\r\n        address _tokenAddress,\r\n        address _judgeAddress,\r\n        bytes32 _messageHash,\r\n        bytes _judgeSig\r\n    ) public {\r\n        ERC20Interface token = ERC20Interface(_tokenAddress);\r\n\r\n        // bytes32 messageHash = packTweetObject(\r\n        //     _tweetId,\r\n        //     _userAddress,\r\n        //     _amount,\r\n        //     _tokenAddress\r\n        // );\r\n\r\n        // validate signature\r\n        address judgeAddress = ECRecovery.recover(_messageHash, _judgeSig);\r\n        emit LogJudgement(_judgeAddress, judgeAddress);\r\n        require(_judgeAddress == judgeAddress);\r\n\r\n        require(!tweet_registered[_tweetId]);\r\n\r\n        require(token.balanceOf(_judgeAddress) >= _amount);\r\n\r\n        token.changeBalance(_judgeAddress, _userAddress, _amount);\r\n\r\n        // keeping this tweet are already registered\r\n        tweet_registered[_tweetId] = true;\r\n    }\r\n\r\n    function packTweetObject (\r\n        uint256 _tweetId,\r\n        address _userAddress,\r\n        uint256 _amount,\r\n        address _tokenAddress\r\n    ) public pure returns (bytes packedTweetObject) {\r\n        packedTweetObject = abi.encodePacked(\r\n            _tweetId,\r\n            _userAddress,\r\n            _amount,\r\n            _tokenAddress\r\n        );\r\n    }\r\n}\r\n\r\ncontract ERC20Interface {\r\n    function balanceOf(address tokenOwner) public constant returns (uint balance);\r\n    function changeBalance(address tokenOwner, address tokenReceiver, uint amount) public;\r\n}\r\n",
  "sourcePath": "D:\\Toycash-modify\\contracts\\ToyCash.sol",
  "compiler": {
    "name": "solc",
    "version": "0.4.24+commit.e67f0147.Emscripten.clang"
  },
  "schemaVersion": "2.0.0",
  "updatedAt": "2018-10-09T12:07:27.504Z"
}